{
  "_format": "hh3-artifact-1",
  "contractName": "MessageBoard",
  "sourceName": "contracts/messageLeave.sol",
  "abi": [
    {
      "inputs": [],
      "stateMutability": "nonpayable",
      "type": "constructor"
    },
    {
      "anonymous": false,
      "inputs": [
        {
          "indexed": true,
          "internalType": "address",
          "name": "sender",
          "type": "address"
        },
        {
          "indexed": false,
          "internalType": "string",
          "name": "message",
          "type": "string"
        }
      ],
      "name": "NewMessage",
      "type": "event"
    },
    {
      "inputs": [
        {
          "internalType": "address",
          "name": "user",
          "type": "address"
        },
        {
          "internalType": "uint256",
          "name": "index",
          "type": "uint256"
        }
      ],
      "name": "getMessage",
      "outputs": [
        {
          "internalType": "string",
          "name": "",
          "type": "string"
        }
      ],
      "stateMutability": "view",
      "type": "function"
    },
    {
      "inputs": [
        {
          "internalType": "address",
          "name": "user",
          "type": "address"
        }
      ],
      "name": "getMessageCount",
      "outputs": [
        {
          "internalType": "uint256",
          "name": "",
          "type": "uint256"
        }
      ],
      "stateMutability": "view",
      "type": "function"
    },
    {
      "inputs": [
        {
          "internalType": "string",
          "name": "_msg",
          "type": "string"
        }
      ],
      "name": "leaveMessage",
      "outputs": [],
      "stateMutability": "nonpayable",
      "type": "function"
    },
    {
      "inputs": [
        {
          "internalType": "address",
          "name": "",
          "type": "address"
        },
        {
          "internalType": "uint256",
          "name": "",
          "type": "uint256"
        }
      ],
      "name": "messages",
      "outputs": [
        {
          "internalType": "string",
          "name": "",
          "type": "string"
        }
      ],
      "stateMutability": "view",
      "type": "function"
    }
  ],
  "bytecode": "0x608060405234801561000f575f5ffd5b50604080518082018252601081526f48656c6c6f204554482050616e64617360801b602080830191909152335f9081528082529283208054600181018255908452922090910161005f828261013f565b50336001600160a01b03167f8da45d748eefefd09cc1491cd32086b6d6a0bd7063d08f05c94df9eb1404bd808260405161009991906101f9565b60405180910390a25061022e565b634e487b7160e01b5f52604160045260245ffd5b600181811c908216806100cf57607f821691505b6020821081036100ed57634e487b7160e01b5f52602260045260245ffd5b50919050565b601f82111561013a57805f5260205f20601f840160051c810160208510156101185750805b601f840160051c820191505b81811015610137575f8155600101610124565b50505b505050565b81516001600160401b03811115610158576101586100a7565b61016c8161016684546100bb565b846100f3565b6020601f82116001811461019e575f83156101875750848201515b5f19600385901b1c1916600184901b178455610137565b5f84815260208120601f198516915b828110156101cd57878501518255602094850194600190920191016101ad565b50848210156101ea57868401515f19600387901b60f8161c191681555b50505050600190811b01905550565b602081525f82518060208401528060208501604085015e5f604082850101526040601f19601f83011684010191505092915050565b61059c8061023b5f395ff3fe608060405234801561000f575f5ffd5b506004361061004a575f3560e01c80634e7f12641461004e578063570c537e14610063578063c45d9bea1461008c578063d7363ce71461009f575b5f5ffd5b61006161005c3660046102c8565b6100d5565b005b610076610071366004610396565b610140565b60405161008391906103be565b60405180910390f35b61007661009a366004610396565b610204565b6100c76100ad3660046103f3565b6001600160a01b03165f9081526020819052604090205490565b604051908152602001610083565b335f90815260208181526040822080546001810182559083529120016100fb8282610497565b50336001600160a01b03167f8da45d748eefefd09cc1491cd32086b6d6a0bd7063d08f05c94df9eb1404bd808260405161013591906103be565b60405180910390a250565b6001600160a01b0382165f9081526020819052604090208054606091908390811061016d5761016d610552565b905f5260205f2001805461018090610413565b80601f01602080910402602001604051908101604052809291908181526020018280546101ac90610413565b80156101f75780601f106101ce576101008083540402835291602001916101f7565b820191905f5260205f20905b8154815290600101906020018083116101da57829003601f168201915b5050505050905092915050565b5f602052815f5260405f20818154811061021c575f80fd5b905f5260205f20015f9150915050805461023590610413565b80601f016020809104026020016040519081016040528092919081815260200182805461026190610413565b80156102ac5780601f10610283576101008083540402835291602001916102ac565b820191905f5260205f20905b81548152906001019060200180831161028f57829003601f168201915b505050505081565b634e487b7160e01b5f52604160045260245ffd5b5f602082840312156102d8575f5ffd5b813567ffffffffffffffff8111156102ee575f5ffd5b8201601f810184136102fe575f5ffd5b803567ffffffffffffffff811115610318576103186102b4565b604051601f8201601f19908116603f0116810167ffffffffffffffff81118282101715610347576103476102b4565b60405281815282820160200186101561035e575f5ffd5b816020840160208301375f91810160200191909152949350505050565b80356001600160a01b0381168114610391575f5ffd5b919050565b5f5f604083850312156103a7575f5ffd5b6103b08361037b565b946020939093013593505050565b602081525f82518060208401528060208501604085015e5f604082850101526040601f19601f83011684010191505092915050565b5f60208284031215610403575f5ffd5b61040c8261037b565b9392505050565b600181811c9082168061042757607f821691505b60208210810361044557634e487b7160e01b5f52602260045260245ffd5b50919050565b601f82111561049257805f5260205f20601f840160051c810160208510156104705750805b601f840160051c820191505b8181101561048f575f815560010161047c565b50505b505050565b815167ffffffffffffffff8111156104b1576104b16102b4565b6104c5816104bf8454610413565b8461044b565b6020601f8211600181146104f7575f83156104e05750848201515b5f19600385901b1c1916600184901b17845561048f565b5f84815260208120601f198516915b828110156105265787850151825560209485019460019092019101610506565b508482101561054357868401515f19600387901b60f8161c191681555b50505050600190811b01905550565b634e487b7160e01b5f52603260045260245ffdfea26469706673582212201a67cfd48cfcc44bc725418f893ab56a93cd6a457c606fd423ab4bb30dd59db064736f6c634300081c0033",
  "linkReferences": {},
  "deployedLinkReferences": {},
  "immutableReferences": {},
  "inputSourceName": "project/contracts/messageLeave.sol",
  "buildInfoId": "solc-0_8_28-305c83cf2736f2b079eb017540e8222352c351d1"
}